:100B83004F646F6D657465720042696B65204C6FCD
:100B9300636B65640049676E6974696F6E204C6F9F
:100BA300636B656400456E7465722050617373777F
:100BB3006F72643A0042696B65204F4E00456E6A5E
:100BC3006F792054686520526964650053706565C8
:100BD30064203A20303030206B6D2F6800547269E6
:100BE3007020413A2030373632204B6D0041636329
:100BF3006573732044656E696564004F6E6C79207C
:100C03003220617474656D7074206C656674004F76
:100C13006E6C79203120617474656D7074206C651D
:100C23006674005761726E696E6721004C6F636B67
:100C3300696E6720696E200054727920416761698B
:020C43006E0041
:100E4A00060A353433323100C100C10102080000FC
:10080000E4F5A0F590C297120DCD30000B7BFF7A76
:100810000B7983120D7480FE300105120D6E80FE7F
:100820007BFF7A0B7998120D747F647E00120DA7FE
:100830007F01120E267F02120E267BFF7A0B79A80B
:10084000120D747FC0120E26E4F515F516120E5B1C
:100850008F1774102516F8A6177F467E00120DA775
:100860000516E51670020515C39405E51564809418
:100870008040DA7F01120E267F02120E26780A7C53
:10088000007D007B007A007910120B66EF70597BB7
:10089000FF7A0B79B8120D747FC87E00120DA71273
:1008A0000E66D2007FC87E00120DA77F01120E26B1
:1008B0007F02120E267BFF7A0B79C0120D747FF433
:1008C0007E01120DA77F01120E267F80120E267B5D
:1008D000FF7A0B79CF120D747FC0120E267BFF7A40
:1008E0000B79E0120D7480FE0509E5097002050818
:1008F0007BFF7A0B79F0120D74E5096401450870ED
:100900000D7FC0120E267BFF7A0B79FE8013E5095E
:1009100064024508700E7FC0120E267BFF7A0C79A8
:1009200012120D74120DF17F967E00120DA77F0139
:10093000120E267F02120E26C3E5099403E5086411
:05094000809480406D71
:100945007F01120E267BFF7A0C7926120D747FC863
:100955007E00120DA77518007519037F01120E266A
:100965007F80120E267BFF7A0C792F120D74E51904
:100975002430FF120E387F2E120E387F2E120E38BD
:100985007F2E120E387F647E00120DA7E51915190A
:1009950070021518D3E5199400E518648094805009
:0D09A500BA7F01120E26120D6ED20180FEE7
:1009B2007BFF7A0C793B120D747FC87E00120DA763
:0D09C2007F01120E267F02120E2602083A57
:100DCD007F38120E26120DA37F01120E26120DA3CF
:100DDD007F80120E26120DA37F0E120E267F027E2D
:040DED0000020DA74C
:090D9E007F2A120E387F027E004C
:100DA700E4FDFCC3ED9FEE6480F8EC648098501579
:100DB700E4FBFA0BBB00010ABA04F8BBFBF50DBD57
:050DC70000010C80DEBC
:010DCC002204
:100E26008FA0C2B4C2B5D2B67F017E00120DA7C292
:020E3600B622E2
:060D6E007BFF7A0B798C7B
:100D74008B1A8A1B891CAB1AAA1BA91C1209CFFF48
:100D84006017120E387F0A7E00120DA77401251C0D
:0A0D9400F51CE4351BF51B80DD2281
:100E38008FA0D2B4C2B5D2B67F017E00120DA7C270
:020E4800B622D0
:100DF100900000D2977FC87E00120DA7C297120DF6
:0A0E0100A7A3E5826405458370E9AC
:010E0B0022C4
:050E6600D2B0C2B12270
:100E0C00C2B0C2B17F147E00120DA7C2B0D2B17FA6
:0A0E1C00F40E120DA7C2B0C2B122FD
:0A0E5B007F61BF6105120C4580F8AD
:010E6500226A
:100C4500D296D295D294C293C292C291C290C290CA
:100C5500D293D292D291209406120D9E7F312220FA
:100C65009506120D9E7F3222209606120D9E7F3329
:100C750022C291D293D292D290209406120D9E7FD9
:100C85003422209506120D9E7F3522209606120DE0
:100C95009E7F3622C292D293D291D2902094061290
:100CA5000D9E7F3722209506120D9E7F38222096B5
:100CB50006120D9E7F3922C293D292D291D29020F4
:100CC5009406120D9E7F2A22209506120D9E7F30D6
:0D0CD50022209606120D9E7F23227F6122B1
:03000000020CE20D
:0C0CE200787FE4F6D8FD758120020D2912
:1009CF00BB010689828A83E0225002E722BBFE0226
:0909DF00E32289828A83E4932259
:1009E800E3F5F009E208B5F06D606B80F3E3F5F02C
:1009F80009E608B5F060605E80F387F009E608B59F
:100A0800F054605280F487F009E208B5F048604677
:100A180080F488828C8387F009E0A3B5F0386036CB
:100A280080F488828C8387F009E493A3B5F027606B
:100A38002580F388828C83E3F5F009E0A3B5F016EE
:100A4800601480F388828C83E3F5F009E493A3B5FE
:100A5800F004600280F2020B13808580E7808E80AC
:100A6800D2803C8015806C807E809B80B5808B8096
:100A7800A1804F8070803A020B1F89828A83ECFA2A
:100A8800E493F5F0A3C8C582C8CCC583CCE493A38E
:100A9800C8C582C8CCC583CCB5F070606E80E189CA
:100AA800828A83E493F5F0A3E208B5F05E605C8087
:100AB800F289828A83E0F5F0A3E608B5F04D604B31
:100AC80080F389828A83E0F5F0A3E208B5F03C6000
:100AD8003A80F389828A83E493F5F0A3E608B5F0B7
:100AE8002A602880F2805389828A83ECFAE493F59D
:100AF800F0A3C8C582C8CCC583CCE0A3C8C582C84A
:100B0800CCC583CCB5F004600280E27FFFB5F0026B
:100B18000F2240027F012289828A83ECFAE0F5F0F5
:100B2800A3C8C582C8CCC583CCE0A3C8C582C8CC3D
:100B3800C583CCB5F0D560D380E389828A83ECFA8B
:100B4800E0F5F0A3C8C582C8CCC583CCE493A3C89C
:100B5800C582C8CCC583CCB5F0B160AF80E288F05F
:100B6800ED2402B4040050A3F582EB2402B404007F
:0B0B780050992323458223900A6173EB
:100CEE00020800E493A3F8E493A34003F68001F214
:100CFE0008DFF48029E493A3F85407240CC8C33307
:100D0E00C4540F4420C8834004F456800146F6DFD5
:100D1E00E4800B0102040810204080900E4AE47E0D
:100D2E00019360BCA3FF543F30E509541FFEE493CA
:100D3E00A360010ECF54C025E060A840B8E493A391
:100D4E00FAE493A3F8E493A3C8C582C8CAC583CABC
:100D5E00F0A3C8C582C8CAC583CADFE9DEE780BE74
:010E5A000097
:00000001FF
